{
  "contractName": "Deals",
  "abi": [
    {
      "constant": true,
      "inputs": [
        {
          "name": "addr",
          "type": "address"
        }
      ],
      "name": "GetDeals",
      "outputs": [
        {
          "name": "",
          "type": "uint256[]"
        }
      ],
      "payable": false,
      "type": "function",
      "stateMutability": "view"
    },
    {
      "constant": false,
      "inputs": [
        {
          "name": "_hub",
          "type": "address"
        },
        {
          "name": "_client",
          "type": "address"
        },
        {
          "name": "_specHash",
          "type": "uint256"
        },
        {
          "name": "_price",
          "type": "uint256"
        },
        {
          "name": "_workTime",
          "type": "uint256"
        }
      ],
      "name": "OpenDeal",
      "outputs": [],
      "payable": false,
      "type": "function",
      "stateMutability": "nonpayable"
    },
    {
      "constant": true,
      "inputs": [
        {
          "name": "dealIndex",
          "type": "uint256"
        }
      ],
      "name": "GetDealInfo",
      "outputs": [
        {
          "name": "specHach",
          "type": "uint256"
        },
        {
          "name": "client",
          "type": "address"
        },
        {
          "name": "hub",
          "type": "address"
        },
        {
          "name": "price",
          "type": "uint256"
        },
        {
          "name": "startTime",
          "type": "uint256"
        },
        {
          "name": "workTime",
          "type": "uint256"
        },
        {
          "name": "endTIme",
          "type": "uint256"
        },
        {
          "name": "status",
          "type": "uint256"
        }
      ],
      "payable": false,
      "type": "function",
      "stateMutability": "view"
    },
    {
      "constant": false,
      "inputs": [
        {
          "name": "id",
          "type": "uint256"
        }
      ],
      "name": "AcceptDeal",
      "outputs": [],
      "payable": false,
      "type": "function",
      "stateMutability": "nonpayable"
    },
    {
      "constant": false,
      "inputs": [
        {
          "name": "id",
          "type": "uint256"
        }
      ],
      "name": "CloseDeal",
      "outputs": [],
      "payable": false,
      "type": "function",
      "stateMutability": "nonpayable"
    },
    {
      "constant": true,
      "inputs": [],
      "name": "GetDealsAmount",
      "outputs": [
        {
          "name": "",
          "type": "uint256"
        }
      ],
      "payable": false,
      "type": "function",
      "stateMutability": "view"
    },
    {
      "inputs": [
        {
          "name": "_token",
          "type": "address"
        }
      ],
      "payable": false,
      "type": "constructor",
      "stateMutability": "nonpayable"
    },
    {
      "anonymous": false,
      "inputs": [
        {
          "indexed": true,
          "name": "hub",
          "type": "address"
        },
        {
          "indexed": true,
          "name": "client",
          "type": "address"
        },
        {
          "indexed": true,
          "name": "id",
          "type": "uint256"
        }
      ],
      "name": "DealOpened",
      "type": "event"
    },
    {
      "anonymous": false,
      "inputs": [
        {
          "indexed": true,
          "name": "hub",
          "type": "address"
        },
        {
          "indexed": true,
          "name": "client",
          "type": "address"
        },
        {
          "indexed": true,
          "name": "id",
          "type": "uint256"
        }
      ],
      "name": "DealAccepted",
      "type": "event"
    },
    {
      "anonymous": false,
      "inputs": [
        {
          "indexed": true,
          "name": "hub",
          "type": "address"
        },
        {
          "indexed": true,
          "name": "client",
          "type": "address"
        },
        {
          "indexed": true,
          "name": "id",
          "type": "uint256"
        }
      ],
      "name": "DealClosed",
      "type": "event"
    }
  ],
  "bytecode": "0x60606040526000600155341561001457600080fd5b60405160208061151583398101604052808051906020019091905050806000806101000a81548173ffffffffffffffffffffffffffffffffffffffff021916908373ffffffffffffffffffffffffffffffffffffffff16021790555050611495806100806000396000f300606060405260043610610078576000357c0100000000000000000000000000000000000000000000000000000000900463ffffffff168063087ca1d81461007d5780633b24475f1461010b5780635ad5f6ae1461017e5780635be20de21461023e578063ca6ad1bf14610261578063e45ea8d314610284575b600080fd5b341561008857600080fd5b6100b4600480803573ffffffffffffffffffffffffffffffffffffffff169060200190919050506102ad565b6040518080602001828103825283818151815260200191508051906020019060200280838360005b838110156100f75780820151818401526020810190506100dc565b505050509050019250505060405180910390f35b341561011657600080fd5b61017c600480803573ffffffffffffffffffffffffffffffffffffffff1690602001909190803573ffffffffffffffffffffffffffffffffffffffff1690602001909190803590602001909190803590602001909190803590602001909190505061034a565b005b341561018957600080fd5b61019f60048080359060200190919050506107ac565b604051808981526020018873ffffffffffffffffffffffffffffffffffffffff1673ffffffffffffffffffffffffffffffffffffffff1681526020018773ffffffffffffffffffffffffffffffffffffffff1673ffffffffffffffffffffffffffffffffffffffff1681526020018681526020018581526020018481526020018381526020018281526020019850505050505050505060405180910390f35b341561024957600080fd5b61025f6004808035906020019091905050610853565b005b341561026c57600080fd5b6102826004808035906020019091905050610a1b565b005b341561028f57600080fd5b6102976113c3565b6040518082815260200191505060405180910390f35b6102b5611404565b600460008373ffffffffffffffffffffffffffffffffffffffff1673ffffffffffffffffffffffffffffffffffffffff16815260200190815260200160002080548060200260200160405190810160405280929190818152602001828054801561033e57602002820191906000526020600020905b81548152602001906001019080831161032a575b50505050509050919050565b8373ffffffffffffffffffffffffffffffffffffffff163373ffffffffffffffffffffffffffffffffffffffff1614151561038457600080fd5b6001805401600181905550610100604051908101604052808481526020018573ffffffffffffffffffffffffffffffffffffffff1681526020018673ffffffffffffffffffffffffffffffffffffffff168152602001838152602001600081526020018281526020016000815260200160018152506002600060015481526020019081526020016000206000820151816000015560208201518160010160006101000a81548173ffffffffffffffffffffffffffffffffffffffff021916908373ffffffffffffffffffffffffffffffffffffffff16021790555060408201518160020160006101000a81548173ffffffffffffffffffffffffffffffffffffffff021916908373ffffffffffffffffffffffffffffffffffffffff160217905550606082015181600301556080820151816004015560a0820151816005015560c0820151816006015560e082015181600701559050506000809054906101000a900473ffffffffffffffffffffffffffffffffffffffff1673ffffffffffffffffffffffffffffffffffffffff166323b872dd8530856000604051602001526040518463ffffffff167c0100000000000000000000000000000000000000000000000000000000028152600401808473ffffffffffffffffffffffffffffffffffffffff1673ffffffffffffffffffffffffffffffffffffffff1681526020018373ffffffffffffffffffffffffffffffffffffffff1673ffffffffffffffffffffffffffffffffffffffff1681526020018281526020019350505050602060405180830381600087803b15156105db57600080fd5b6102c65a03f115156105ec57600080fd5b50505060405180519050151561060157600080fd5b61062982600360006001548152602001908152602001600020546113cd90919063ffffffff16565b60036000600154815260200190815260200160002081905550600460008573ffffffffffffffffffffffffffffffffffffffff1673ffffffffffffffffffffffffffffffffffffffff16815260200190815260200160002080548060010182816106939190611418565b91600052602060002090016000600154909190915055508373ffffffffffffffffffffffffffffffffffffffff168573ffffffffffffffffffffffffffffffffffffffff1614151561074857600460008673ffffffffffffffffffffffffffffffffffffffff1673ffffffffffffffffffffffffffffffffffffffff16815260200190815260200160002080548060010182816107309190611418565b91600052602060002090016000600154909190915055505b6001548473ffffffffffffffffffffffffffffffffffffffff168673ffffffffffffffffffffffffffffffffffffffff167f873cb35202fef184c9f8ee23c04e36dc38f3e26fb285224ca574a837be97684860405160405180910390a45050505050565b6000806000806000806000806000600260008b8152602001908152602001600020905080600001548160010160009054906101000a900473ffffffffffffffffffffffffffffffffffffffff168260020160009054906101000a900473ffffffffffffffffffffffffffffffffffffffff16836003015484600401548560050154866006015487600701549850985098509850985098509850985050919395975091939597565b6002600082815260200190815260200160002060020160009054906101000a900473ffffffffffffffffffffffffffffffffffffffff1673ffffffffffffffffffffffffffffffffffffffff163373ffffffffffffffffffffffffffffffffffffffff161415156108c357600080fd5b600160026000838152602001908152602001600020600701541415156108e857600080fd5b600280600083815260200190815260200160002060070181905550426002600083815260200190815260200160002060040181905550600260008281526020019081526020016000206005015442016002600083815260200190815260200160002060060181905550806002600083815260200190815260200160002060010160009054906101000a900473ffffffffffffffffffffffffffffffffffffffff1673ffffffffffffffffffffffffffffffffffffffff166002600084815260200190815260200160002060020160009054906101000a900473ffffffffffffffffffffffffffffffffffffffff1673ffffffffffffffffffffffffffffffffffffffff167f3a38edea6028913403c74ce8433c90eca94f4ca074d318d8cb77be5290ba4f1560405160405180910390a450565b600060028060008481526020019081526020016000206007015414156110b1576002600083815260200190815260200160002060060154421115610bef576000809054906101000a900473ffffffffffffffffffffffffffffffffffffffff1673ffffffffffffffffffffffffffffffffffffffff1663a9059cbb6002600085815260200190815260200160002060020160009054906101000a900473ffffffffffffffffffffffffffffffffffffffff1660026000868152602001908152602001600020600301546000604051602001526040518363ffffffff167c0100000000000000000000000000000000000000000000000000000000028152600401808373ffffffffffffffffffffffffffffffffffffffff1673ffffffffffffffffffffffffffffffffffffffff16815260200182815260200192505050602060405180830381600087803b1515610b7157600080fd5b6102c65a03f11515610b8257600080fd5b505050604051805190501515610b9757600080fd5b610bd3600260008481526020019081526020016000206003015460036000858152602001908152602001600020546113eb90919063ffffffff16565b6003600084815260200190815260200160002081905550610fc9565b6002600083815260200190815260200160002060010160009054906101000a900473ffffffffffffffffffffffffffffffffffffffff1673ffffffffffffffffffffffffffffffffffffffff163373ffffffffffffffffffffffffffffffffffffffff16141515610c5f57600080fd5b60026000838152602001908152602001600020600501546002600084815260200190815260200160002060030154811515610c9657fe5b04600260008481526020019081526020016000206004015442030290506000809054906101000a900473ffffffffffffffffffffffffffffffffffffffff1673ffffffffffffffffffffffffffffffffffffffff1663a9059cbb6002600085815260200190815260200160002060020160009054906101000a900473ffffffffffffffffffffffffffffffffffffffff16836000604051602001526040518363ffffffff167c0100000000000000000000000000000000000000000000000000000000028152600401808373ffffffffffffffffffffffffffffffffffffffff1673ffffffffffffffffffffffffffffffffffffffff16815260200182815260200192505050602060405180830381600087803b1515610db557600080fd5b6102c65a03f11515610dc657600080fd5b505050604051805190501515610ddb57600080fd5b610e018160036000858152602001908152602001600020546113eb90919063ffffffff16565b60036000848152602001908152602001600020819055506000809054906101000a900473ffffffffffffffffffffffffffffffffffffffff1673ffffffffffffffffffffffffffffffffffffffff1663a9059cbb6002600085815260200190815260200160002060010160009054906101000a900473ffffffffffffffffffffffffffffffffffffffff16836002600087815260200190815260200160002060030154036000604051602001526040518363ffffffff167c0100000000000000000000000000000000000000000000000000000000028152600401808373ffffffffffffffffffffffffffffffffffffffff1673ffffffffffffffffffffffffffffffffffffffff16815260200182815260200192505050602060405180830381600087803b1515610f3257600080fd5b6102c65a03f11515610f4357600080fd5b505050604051805190501515610f5857600080fd5b610f968160026000858152602001908152602001600020600301540360036000858152602001908152602001600020546113eb90919063ffffffff16565b60036000848152602001908152602001600020819055504260026000848152602001908152602001600020600601819055505b60036002600084815260200190815260200160002060070181905550816002600084815260200190815260200160002060010160009054906101000a900473ffffffffffffffffffffffffffffffffffffffff1673ffffffffffffffffffffffffffffffffffffffff166002600085815260200190815260200160002060020160009054906101000a900473ffffffffffffffffffffffffffffffffffffffff1673ffffffffffffffffffffffffffffffffffffffff167f72615f99a62a6cc2f8452d5c0c9cbc5683995297e1d988f09bb1471d4eefb89060405160405180910390a46113bf565b6001600260008481526020019081526020016000206007015414156113b9576002600083815260200190815260200160002060010160009054906101000a900473ffffffffffffffffffffffffffffffffffffffff1673ffffffffffffffffffffffffffffffffffffffff163373ffffffffffffffffffffffffffffffffffffffff1614151561114057600080fd5b6000809054906101000a900473ffffffffffffffffffffffffffffffffffffffff1673ffffffffffffffffffffffffffffffffffffffff1663a9059cbb6002600085815260200190815260200160002060010160009054906101000a900473ffffffffffffffffffffffffffffffffffffffff1660026000868152602001908152602001600020600301546000604051602001526040518363ffffffff167c0100000000000000000000000000000000000000000000000000000000028152600401808373ffffffffffffffffffffffffffffffffffffffff1673ffffffffffffffffffffffffffffffffffffffff16815260200182815260200192505050602060405180830381600087803b151561125857600080fd5b6102c65a03f1151561126957600080fd5b50505060405180519050151561127e57600080fd5b6112ba600260008481526020019081526020016000206003015460036000858152602001908152602001600020546113eb90919063ffffffff16565b600360008481526020019081526020016000208190555060036002600084815260200190815260200160002060070181905550816002600084815260200190815260200160002060010160009054906101000a900473ffffffffffffffffffffffffffffffffffffffff1673ffffffffffffffffffffffffffffffffffffffff166002600085815260200190815260200160002060020160009054906101000a900473ffffffffffffffffffffffffffffffffffffffff1673ffffffffffffffffffffffffffffffffffffffff167f72615f99a62a6cc2f8452d5c0c9cbc5683995297e1d988f09bb1471d4eefb89060405160405180910390a46113be565b600080fd5b5b5050565b6000600154905090565b60008082840190508381101515156113e157fe5b8091505092915050565b60008282111515156113f957fe5b818303905092915050565b602060405190810160405280600081525090565b81548183558181151161143f5781836000526020600020918201910161143e9190611444565b5b505050565b61146691905b8082111561146257600081600090555060010161144a565b5090565b905600a165627a7a723058204527c3dad6b086c850eb32621ceb4b128d48117767b301dd5c86dd584bc3609f0029",
  "source": "pragma solidity ^0.4.15;\n\n\nimport \"./SNMTToken.sol\";\n\n\ncontract Deals {\n\n    using SafeMath for uint256;\n\n    SNMTToken token;\n\n    uint constant STATUS_PENDING = 1;\n    uint constant STATUS_ACCEPTED = 2;\n    uint constant STATUS_CLOSED = 3;\n\n    struct Deal {\n    uint256 specificationHash;\n    address client;\n    address hub;\n    uint256 price;\n    uint startTime;\n    uint workTime;\n    uint endTime;\n    uint status;\n    }\n\n    event DealOpened(address indexed hub, address indexed client, uint indexed id);\n\n    event DealAccepted(address indexed hub, address indexed client, uint indexed id);\n\n    event DealClosed(address indexed hub, address indexed client, uint indexed id);\n\n    uint dealAmount = 0;\n\n    mapping (uint => Deal) deals;\n\n    mapping (uint => uint256) blockedBalance;\n\n    mapping (address => uint[]) dealsIndex;\n\n    function Deals(SNMTToken _token){\n        token = _token;\n    }\n\n    function OpenDeal(address _hub, address _client, uint256 _specHash, uint256 _price, uint _workTime){\n        require(msg.sender == _client);\n\n        dealAmount = dealAmount + 1;\n\n        // startTime - 0, setting in AcceptDeal()\n        // workTime - in seconds\n        // endTime - 0, setting in AcceptDeal()\n        deals[dealAmount] = Deal(_specHash, _client, _hub, _price, 0, _workTime, 0, STATUS_PENDING);\n\n        require(token.transferFrom(_client, this, _price));\n        blockedBalance[dealAmount] = blockedBalance[dealAmount].add(_price);\n\n        dealsIndex[_client].push(dealAmount);\n        if (_hub != _client){\n            dealsIndex[_hub].push(dealAmount);\n        }\n\n        DealOpened(_hub, _client, dealAmount);\n    }\n\n    function AcceptDeal(uint id) {\n        require(msg.sender == deals[id].hub);\n        require(deals[id].status == STATUS_PENDING);\n\n        deals[id].status = STATUS_ACCEPTED;\n        deals[id].startTime = now;\n        deals[id].endTime = now + deals[id].workTime;\n\n        DealAccepted(deals[id].hub, deals[id].client, id);\n    }\n\n    function CloseDeal(uint id) {\n        if (deals[id].status == STATUS_ACCEPTED) {\n            // Closing deal\n            if (now > deals[id].endTime) {\n                // After endTime\n                require(token.transfer(deals[id].hub, deals[id].price));\n                blockedBalance[id] = blockedBalance[id].sub(deals[id].price);\n            } else {\n                require(msg.sender == deals[id].client);\n                // Before endTime\n                var paidAmount = (now - deals[id].startTime) * (deals[id].price / deals[id].workTime);\n                require(token.transfer(deals[id].hub, paidAmount));\n                blockedBalance[id] = blockedBalance[id].sub(paidAmount);\n                require(token.transfer(deals[id].client, deals[id].price - paidAmount));\n                blockedBalance[id] = blockedBalance[id].sub(deals[id].price - paidAmount);\n                deals[id].endTime = now;\n            }\n            deals[id].status = STATUS_CLOSED;\n            DealClosed(deals[id].hub, deals[id].client, id);\n        }else if (deals[id].status == STATUS_PENDING) {\n            require(msg.sender == deals[id].client);\n            // Canceling deal\n            require(token.transfer(deals[id].client, deals[id].price));\n            blockedBalance[id] = blockedBalance[id].sub(deals[id].price);\n\n            deals[id].status = STATUS_CLOSED;\n\n            DealClosed(deals[id].hub, deals[id].client, id);\n        } else {\n            revert();\n        }\n    }\n\n    function GetDealInfo(uint dealIndex) constant returns (uint specHach, address client, address hub, uint price, uint startTime, uint workTime, uint endTIme, uint status){\n        Deal storage deal = deals[dealIndex];\n        return (deal.specificationHash, deal.client, deal.hub, deal.price, deal.startTime, deal.workTime, deal.endTime, deal.status);\n    }\n\n    function GetDeals(address addr) constant returns (uint[]){\n        return dealsIndex[addr];\n    }\n\n    function GetDealsAmount() constant returns (uint){\n        return dealAmount;\n    }\n\n}",
  "sourcePath": "/home/quasisamurai/Рабочий стол/github/deals-registry/contracts/Deals.sol",
  "compiler": {
    "name": "solc",
    "version": "0.4.18+commit.9cf6e910.Emscripten.clang"
  },
  "schemaVersion": "1.0.1",
  "updatedAt": "2018-02-05T19:01:15.903Z"
}